:100000000C9434000C94A5000C94A5000C94A5004D
:100010000C94A5000C94A5000C94A5000C94A500CC
:100020000C94A5000C94A5000C94A5000C94A500BC
:100030000C94A5000C94A5000C94A5000C94A500AC
:100040000C94A5000C94A5000C94A5000C94A5009C
:100050000C94A5000C94A5000C94A5000C94A5008C
:100060000C94A5000C94A50011241FBECFEFD8E07E
:10007000DEBFCDBF0E9440000C943E00F894FFCF3D
:100080008AB182608AB98AB184608AB98AB188608B
:100090008AB984B1886084B984B1846084B984B138
:1000A000826084B98BB18D7F8BB985B18D7F85B925
:1000B00085B1886085B98BB184608BB985B1846066
:1000C00085B98BB188608BB92AEA30E489EF93E077
:1000D0002150304080409040D9F7000085B18B7F9F
:1000E00085B985B1826085B92AE230E58EEF90E06E
:1000F0002150304080409040D9F700008BB18260A1
:100100008BB985B1846085B98BB1877F8BB985B197
:10011000877F85B92AEA30E489EF93E021503040A7
:1001200080409040D9F700008BB18B7F8BB98BB1A9
:1001300088608BB92AE230E58EEF90E021503040A4
:0A01400080409040D9F70000ADCFD9
:04014A000C94000011
:00000001FF
